S01E000052414D436F646553706563696669635F52656C656173652E6D6F74C2
S113000051059905E3050D063B065106530600000C
S1130010012012490860124840210160810C4160AE
S11300207047104B186099600F4803E00D4B18603F
S113003099600E48986192B2DA61FF20801C0C49E5
S113004008600120D8390A680240FCD088677047EC
S1130050044B186099600748ECE7000098031020EF
S11300604000102000001020009420002494200060
S1130070A00310200091100080B500F021F901BD0B
S1130080F0B583B0040017008E0803250320084050
S11300900190230003223100380000F05CF9FAE0FB
S11300A080B5052069464870012300AA521C01212D
S11300B0684600F022F968460078C007F4D401BD10
S11300C001060202FF231B0413400B43010AFF2213
S11300D012020A401A43000E10437047F0B585B06F
S11300E00400080C039088B2C10B04914004400C36
S11300F00105090D491E8941C943C90F000B401868
S1130100029000250398002823D0FF273F040626E9
S113011068460671012101A800F059F92006210260
S113012039400143200A3A0A02400A43200E104390
S11301300090D820694608700421684600F047F909
S1130140FFF7AEFF8020400224186D1C03988542FF
S1130150DED30498002820D00620694608710121C6
S113016001A800F034F920062102FF2212040A40FB
S11301700243200AFF21090201401143200E0843D3
S113018000905220694608700421684600F01FF967
S1130190FFF786FF8020000224180025029800281B
S11301A023D0FF273F04062668460671012101A8D3
S11301B000F00DF92006210239400143200A3A0AD1
S11301C002400A43200E1043009020206946087024
S11301D00421684600F0FBF8FFF762FF802040012D
S11301E024186D1C02988542DED3002005B0F0BDB2
S11301F07CB506000C00062069460871012101A89F
S113020000F0E5F83000FFF75BFF0090002C05D00C
S1130210022C07D004D3032C09D00CE0202002E0E8
S1130220522000E0D82069460870042503E06020CD
S1130230694608700125E9B2684600F0C8F8FFF77E
S11302402FFF002076BD30B583B00C0006216B462D
S11302501972151FFFF734FF019004222900684624
S113026000F0F0F8012102A800F0B1F8042201A97D
S1130270280000F0E7F802202870211D280000F073
S1130280A6F8FFF70DFF04226946280000F0DAF80B
S1130290002003B030BDB0002118019A002A0BD011
S11302A06A4615700B0C53700B0A9370D1700423BB
S11302B00199381800F021F8002003B0F0BD0000C7
S11302C080B55648016820220A43026054480168F8
S11302D0FF22914301220A430260E83801680122A7
S11302E09143016000214162C168090C09040422A0
S11302F00A43C260FFF78CFE01BDF8B5494C0025E6
S11303002561494E26604E1EB6B266600126A6607F
S1130310002B04D017782766521C5B1EFAD1266185
S113032011290DD2A26A5207FCD5A26AD207FCD4C5
S113033000290DD0226E0270401C491E08D0F9E736
S113034007226265E6640A0001003848FFF769FE87
S1130350E564A560F1BDFEB506000F003800344920
S113036000F09EF884B23800314900F099F86846EC
S113037001802C4D002028612E482860781E80B210
S11303806860072068650120E864A8600299090292
S1130390090A6A46127912060A432A662861264F18
S11303A0012C08DB224A31003800FFF73FFE2348C6
S11303B03618641EF6D16846028831003800FFF70B
S11303C035FE0020E864FFE7A86003B0F0BD38B54F
S11303D00A00144C00252561194921600121A160FE
S11303E0112A08D2002A04D003782366401C521E26
S11303F0FAD1216107E0082323650223E364216124
S11304000A49FFF725FEA06A4007FCD5A06AC00789
S1130410FCD4E564A56031BD000000001800004074
S1130420F00020400000204000030700600020404E
S1130430FF0F000000031F00EC002040FC3F000001
S113044000010700124207D08B0706D00B78491C25
S11304500370401C521EF7D87047830706D00B78F0
S1130460491C0370401C521EF9D1704770B4103AF5
S113047003D378C9103A78C0FBD2530701D318C903
S113048018C001D508C908C0D20704D30B8803805B
S1130490891C801C002A01D50B78037070BC70473E
S11304A00022030A8B420BD203098B4219D2430860
S11304B08B422ED2411A00D2014652411046704757
S11304C0FF2209023FD012068B4205D31212090201
S11304D08B4201D31212090203098B4219D300E0A3
S11304E0090AC3098B4201D3CB01C01A52418309C3
S11304F08B4201D38B01C01A524143098B4201D371
S11305004B01C01A524103098B4201D30B01C01A9B
S11305105241C3088B4201D3CB00C01A5241830815
S11305208B4201D38B00C01A524143088B4201D342
S11305304B00C01A5241884200D3401A5241CFD2D4
S113054001461046704708B5C046C04608BD0000C5
S113055038B5546820253D48016829430160FFF7F8
S11305608BFD002020800821A170E0700121217101
S11305706171A171E07120726072A1720221216126
S11305806061A561C802E06140012062FF20400073
S11305906062C803A06231BDF2B582B05768506989
S11305A01469860C8003800B0090002E0AD08025ED
S11305B0ED023A0029002000FFF762FD64197F195B
S11305C0761EF4D10098002804D03A000146200099
S11305D0FFF756FD0020029908600299486003B0B5
S11305E0F0BDF2B557685069060A14690AD080252F
S11305F06D003A0029002000FFF725FE64197F19D9
S1130600761EF4D1002000990860F1BD38B5146954
S1130610556900200860002D09D000212000FFF753
S1130620E7FD8020400124186D1E05D0F5E78021E8
S113063089032000FFF752FD31BD80B503480168EE
S113064020220A430260FFF717FD01BD1800004095
S10706507047704734
S9030000FC
