S01700004C4E383831785F466C6173685F324D422E6D6F744A
S1130000B304E304FB04250545054D054F05000035
S1130010012010490860104840210160810C4160B2
S113002070470E4B186099600D48FFE7986192B2D3
S1130030DA61FF20801C0B4908600120D8390A6866
S11300400240FCD088677047044B186099600648EA
S1130050ECE700009803102040001020000010205E
S113006000942000A00310200091100080B500F03F
S113007023F901BDF7B504000D002800642100F048
S113008099F906002800642100F094F901916F4663
S113009003203870002E10D0029D200C7870200AA6
S11300A0B870FC7004236A466421280000F021F92A
S11300B064356434761EF0D10295019800280AD084
S11300C0200C7870200AB870FC7004236A460199E9
S11300D0029800F00EF9EAE080B505206946487000
S11300E0012300AA521C0121684600F002F9684667
S11300F00078C007F4D401BD01060202FF231B04EB
S113010013400B43010AFF2212020A401A43000E55
S113011010437047F0B583B004000D0C88B2C70BD0
S11301204004400C0105090D491E8941C943C90F0A
S1130130000B40180290002D08D080267602022180
S1130140200000F04FF8A4196D1EF8D1002F20D024
S11301500620694608700121684600F0F9F8200677
S11301602102FF2212040A400243200AFF2109024D
S113017001401143200E0843019052206946087142
S1130180042101A800F0E4F8FFF7A6FF8020000294
S1130190241800250298002823D00627064668461E
S11301A00770012100F0D4F821062202FF20000488
S11301B010400843210AFF2212020A400243200E83
S11301C010430190202069460871042101A800F021
S11301D0BFF8FFF781FF8020400124186D1CB54251
S11301E0DDD364E07CB506000C0006206946087087
S11301F00121684600F0ACF83000FFF77DFF019064
S1130200002C05D0022C07D004D3032C09D00CE019
S1130210202002E0522000E0D8206946087104251D
S113022003E06020694608710125E9B201A800F0E5
S11302308FF8FFF751FF002076BD30B583B00C0076
S1130240150006216A461170FFF756FF029001213E
S1130250684600F07DF82D1F0422290001A800F053
S11302601BF9042202A9280000F016F902202870C4
S1130270211D280000F06CF8FFF72EFF042201A9CD
S1130280280000F009F9002003B030BDB80031188F
S1130290019A002A0BD06A4614700B0C53700B0A97
S11302A09370D17004230199281800F022F80020DB
S11302B003B0F0BD0000000080B53848016820227A
S11302C00A43026036480168FF22914301220A432F
S11302D00260E83801680122914301600021416213
S11302E0C168090C090408220A43C260FFF790FEA2
S11302F001BDF8B52B4C002525612B4E26604E1E02
S1130300B6B266600126A6601F0004D0177827667F
S1130310521C5B1EFAD1266111290ED2A26A520721
S1130320FCD5A26AD207FCD4002293B28B420CD231
S1130330236E0370401C521CF7E707226265E664D3
S11303400A0001001948FFF76CFEE564A560F1BDE1
S113035038B50A00134C0025256115492160012197
S1130360A160112A10D2002A04D003782366401C0D
S1130370521EFAD12161A06A4007FCD5A06AC007C9
S1130380FCD4E564A56031BD082323650223E3643E
S113039021610649FFF758FEEDE700001800004010
S11303A0F0002040000020400003070060002040CF
S11303B0000107000022030A8B420BD203098B427F
S11303C019D243088B422ED2411A00D2014652411F
S11303D010467047FF2209023FD012068B4205D314
S11303E0121209028B4201D31212090203098B4231
S11303F019D300E0090AC3098B4201D3CB01C01A07
S1130400524183098B4201D38B01C01A52414309E3
S11304108B4201D34B01C01A524103098B4201D3D1
S11304200B01C01A5241C3088B4201D3CB00C01A3E
S1130430524183088B4201D38B00C01A52414308B6
S11304408B4201D34B00C01A5241884200D3401A58
S11304505241CFD201461046704708B5C046C04647
S113046008BD000070B4103A03D378C9103A78C0BC
S1130470FBD2530701D318C918C001D508C908C055
S1130480D20704D30B880380891C801C002A01D561
S11304900B78037070BC70478B0701D18307E1D0E0
S11304A0124205D00B78491C0370401C521EF9D12E
S11304B0704710B55468FFF7D9FD0020208008214B
S11304C0A170E070012121716171A171E17121724A
S11304D06072A172216160614802A061C000E061A4
S11304E010BD10B50C001000426841690069FFF7A7
S11304F0C1FD00202060606010BDF2B555685069F0
S1130500060A14690AD080277F002A0039002000D7
S1130510FFF793FEE419ED19761EF4D1009800213B
S11305200160F1BD80B51069526900230B60002A97
S113053003D01103FFF7EEFD01BD03210020FFF7F7
S113054051FE01BD80B5FFF791FD01BD70477047B5
S9030000FC
